{
  "_format": "hh-sol-artifact-1",
  "contractName": "SafeboxFactory",
  "sourceName": "contracts/zkSafe/SafeboxFactory.sol",
  "abi": [
    {
      "inputs": [
        {
          "internalType": "address",
          "name": "zkPassAddr",
          "type": "address"
        }
      ],
      "stateMutability": "nonpayable",
      "type": "constructor"
    },
    {
      "anonymous": false,
      "inputs": [
        {
          "indexed": true,
          "internalType": "address",
          "name": "user",
          "type": "address"
        },
        {
          "indexed": true,
          "internalType": "address",
          "name": "safebox",
          "type": "address"
        }
      ],
      "name": "SafeboxOwner",
      "type": "event"
    },
    {
      "inputs": [
        {
          "internalType": "address",
          "name": "fromOwner",
          "type": "address"
        },
        {
          "internalType": "address",
          "name": "newOwner",
          "type": "address"
        }
      ],
      "name": "changeSafeboxOwner",
      "outputs": [],
      "stateMutability": "nonpayable",
      "type": "function"
    },
    {
      "inputs": [],
      "name": "createSafebox",
      "outputs": [
        {
          "internalType": "address",
          "name": "",
          "type": "address"
        }
      ],
      "stateMutability": "nonpayable",
      "type": "function"
    },
    {
      "inputs": [
        {
          "internalType": "address",
          "name": "user",
          "type": "address"
        }
      ],
      "name": "getSafeboxAddr",
      "outputs": [
        {
          "internalType": "address",
          "name": "",
          "type": "address"
        }
      ],
      "stateMutability": "view",
      "type": "function"
    },
    {
      "inputs": [
        {
          "internalType": "address",
          "name": "",
          "type": "address"
        }
      ],
      "name": "nonceOf",
      "outputs": [
        {
          "internalType": "uint256",
          "name": "",
          "type": "uint256"
        }
      ],
      "stateMutability": "view",
      "type": "function"
    },
    {
      "inputs": [
        {
          "internalType": "address",
          "name": "",
          "type": "address"
        }
      ],
      "name": "userToSafebox",
      "outputs": [
        {
          "internalType": "address",
          "name": "",
          "type": "address"
        }
      ],
      "stateMutability": "view",
      "type": "function"
    },
    {
      "inputs": [],
      "name": "zkPass",
      "outputs": [
        {
          "internalType": "contract ZKPass",
          "name": "",
          "type": "address"
        }
      ],
      "stateMutability": "view",
      "type": "function"
    }
  ],
  "bytecode": "0x60806040523480156200001157600080fd5b5060405162003fa138038062003fa18339818101604052810190620000379190620000e8565b806000806101000a81548173ffffffffffffffffffffffffffffffffffffffff021916908373ffffffffffffffffffffffffffffffffffffffff160217905550506200011a565b600080fd5b600073ffffffffffffffffffffffffffffffffffffffff82169050919050565b6000620000b08262000083565b9050919050565b620000c281620000a3565b8114620000ce57600080fd5b50565b600081519050620000e281620000b7565b92915050565b6000602082840312156200010157620001006200007e565b5b60006200011184828501620000d1565b91505092915050565b613e77806200012a6000396000f3fe608060405234801561001057600080fd5b50600436106100625760003560e01c806326afc04a146100675780632ef8cdbe1461008557806345289ba7146100a3578063a47e2266146100bf578063ed2a2d64146100ef578063f987a16b1461011f575b600080fd5b61006f61014f565b60405161007c9190610a22565b60405180910390f35b61008d61048e565b60405161009a9190610a9c565b60405180910390f35b6100bd60048036038101906100b89190610ae8565b6104b2565b005b6100d960048036038101906100d49190610b28565b6107f3565b6040516100e69190610a22565b60405180910390f35b61010960048036038101906101049190610b28565b610981565b6040516101169190610b6e565b60405180910390f35b61013960048036038101906101349190610b28565b610999565b6040516101469190610a22565b60405180910390f35b60008073ffffffffffffffffffffffffffffffffffffffff16600160006101746109cc565b73ffffffffffffffffffffffffffffffffffffffff1673ffffffffffffffffffffffffffffffffffffffff16815260200190815260200160002060009054906101000a900473ffffffffffffffffffffffffffffffffffffffff1673ffffffffffffffffffffffffffffffffffffffff1614610225576040517f08c379a000000000000000000000000000000000000000000000000000000000815260040161021c90610c0c565b60405180910390fd5b60006001600260006102356109cc565b73ffffffffffffffffffffffffffffffffffffffff1673ffffffffffffffffffffffffffffffffffffffff1681526020019081526020016000205461027a9190610c5b565b905080600260006102896109cc565b73ffffffffffffffffffffffffffffffffffffffff1673ffffffffffffffffffffffffffffffffffffffff1681526020019081526020016000208190555060006102d16109cc565b826040516020016102e3929190610d1a565b60405160208183030381529060405280519060200120905060008160405161030a906109d4565b8190604051809103906000f590508015801561032a573d6000803e3d6000fd5b5090508073ffffffffffffffffffffffffffffffffffffffff166319ab453c6103516109cc565b6040518263ffffffff1660e01b815260040161036d9190610a22565b600060405180830381600087803b15801561038757600080fd5b505af115801561039b573d6000803e3d6000fd5b5050505080600160006103ac6109cc565b73ffffffffffffffffffffffffffffffffffffffff1673ffffffffffffffffffffffffffffffffffffffff16815260200190815260200160002060006101000a81548173ffffffffffffffffffffffffffffffffffffffff021916908373ffffffffffffffffffffffffffffffffffffffff1602179055508073ffffffffffffffffffffffffffffffffffffffff166104436109cc565b73ffffffffffffffffffffffffffffffffffffffff167f2fed33a553dd4b8eeab59c44f78cd043485e3199ebc41fff2c4ee1912ef76de360405160405180910390a380935050505090565b60008054906101000a900473ffffffffffffffffffffffffffffffffffffffff1681565b6000600160008473ffffffffffffffffffffffffffffffffffffffff1673ffffffffffffffffffffffffffffffffffffffff16815260200190815260200160002060009054906101000a900473ffffffffffffffffffffffffffffffffffffffff16905061051e6109cc565b73ffffffffffffffffffffffffffffffffffffffff168173ffffffffffffffffffffffffffffffffffffffff161461058b576040517f08c379a000000000000000000000000000000000000000000000000000000000815260040161058290610db8565b60405180910390fd5b600073ffffffffffffffffffffffffffffffffffffffff16600160008473ffffffffffffffffffffffffffffffffffffffff1673ffffffffffffffffffffffffffffffffffffffff16815260200190815260200160002060009054906101000a900473ffffffffffffffffffffffffffffffffffffffff1673ffffffffffffffffffffffffffffffffffffffff1614610659576040517f08c379a000000000000000000000000000000000000000000000000000000000815260040161065090610e4a565b60405180910390fd5b600160008473ffffffffffffffffffffffffffffffffffffffff1673ffffffffffffffffffffffffffffffffffffffff16815260200190815260200160002060006101000a81549073ffffffffffffffffffffffffffffffffffffffff021916905580600160008473ffffffffffffffffffffffffffffffffffffffff1673ffffffffffffffffffffffffffffffffffffffff16815260200190815260200160002060006101000a81548173ffffffffffffffffffffffffffffffffffffffff021916908373ffffffffffffffffffffffffffffffffffffffff160217905550600073ffffffffffffffffffffffffffffffffffffffff168373ffffffffffffffffffffffffffffffffffffffff167f2fed33a553dd4b8eeab59c44f78cd043485e3199ebc41fff2c4ee1912ef76de360405160405180910390a38073ffffffffffffffffffffffffffffffffffffffff168273ffffffffffffffffffffffffffffffffffffffff167f2fed33a553dd4b8eeab59c44f78cd043485e3199ebc41fff2c4ee1912ef76de360405160405180910390a3505050565b600080600160008473ffffffffffffffffffffffffffffffffffffffff1673ffffffffffffffffffffffffffffffffffffffff16815260200190815260200160002060009054906101000a900473ffffffffffffffffffffffffffffffffffffffff169050600073ffffffffffffffffffffffffffffffffffffffff168173ffffffffffffffffffffffffffffffffffffffff1614610895578091505061097c565b60006001600260008673ffffffffffffffffffffffffffffffffffffffff1673ffffffffffffffffffffffffffffffffffffffff168152602001908152602001600020546108e39190610c5b565b9050600084826040516020016108fa929190610d1a565b604051602081830303815290604052805190602001209050600060ff60f81b30836040518060200161092b906109d4565b6020820181038252601f19601f82011660405250805190602001206040516020016109599493929190610ee2565b6040516020818303038152906040528051906020012060001c9050809450505050505b919050565b60026020528060005260406000206000915090505481565b60016020528060005260406000206000915054906101000a900473ffffffffffffffffffffffffffffffffffffffff1681565b600033905090565b612f1180610f3183390190565b600073ffffffffffffffffffffffffffffffffffffffff82169050919050565b6000610a0c826109e1565b9050919050565b610a1c81610a01565b82525050565b6000602082019050610a376000830184610a13565b92915050565b6000819050919050565b6000610a62610a5d610a58846109e1565b610a3d565b6109e1565b9050919050565b6000610a7482610a47565b9050919050565b6000610a8682610a69565b9050919050565b610a9681610a7b565b82525050565b6000602082019050610ab16000830184610a8d565b92915050565b600080fd5b610ac581610a01565b8114610ad057600080fd5b50565b600081359050610ae281610abc565b92915050565b60008060408385031215610aff57610afe610ab7565b5b6000610b0d85828601610ad3565b9250506020610b1e85828601610ad3565b9150509250929050565b600060208284031215610b3e57610b3d610ab7565b5b6000610b4c84828501610ad3565b91505092915050565b6000819050919050565b610b6881610b55565b82525050565b6000602082019050610b836000830184610b5f565b92915050565b600082825260208201905092915050565b7f53616665626f78466163746f72793a3a63726561746553616665626f783a205360008201527f616665626f782065786973740000000000000000000000000000000000000000602082015250565b6000610bf6602c83610b89565b9150610c0182610b9a565b604082019050919050565b60006020820190508181036000830152610c2581610be9565b9050919050565b7f4e487b7100000000000000000000000000000000000000000000000000000000600052601160045260246000fd5b6000610c6682610b55565b9150610c7183610b55565b9250827fffffffffffffffffffffffffffffffffffffffffffffffffffffffffffffffff03821115610ca657610ca5610c2c565b5b828201905092915050565b60008160601b9050919050565b6000610cc982610cb1565b9050919050565b6000610cdb82610cbe565b9050919050565b610cf3610cee82610a01565b610cd0565b82525050565b6000819050919050565b610d14610d0f82610b55565b610cf9565b82525050565b6000610d268285610ce2565b601482019150610d368284610d03565b6020820191508190509392505050565b7f53616665626f78466163746f72793a3a6368616e676553616665626f784f776e60008201527f65723a2066726f6d4f776e6572206572726f7200000000000000000000000000602082015250565b6000610da2603383610b89565b9150610dad82610d46565b604082019050919050565b60006020820190508181036000830152610dd181610d95565b9050919050565b7f53616665626f78466163746f72793a3a6368616e676553616665626f784f776e60008201527f65723a206e65774f776e657227732053616665626f7820657869737400000000602082015250565b6000610e34603c83610b89565b9150610e3f82610dd8565b604082019050919050565b60006020820190508181036000830152610e6381610e27565b9050919050565b60007fff0000000000000000000000000000000000000000000000000000000000000082169050919050565b6000819050919050565b610eb1610eac82610e6a565b610e96565b82525050565b6000819050919050565b6000819050919050565b610edc610ed782610eb7565b610ec1565b82525050565b6000610eee8287610ea0565b600182019150610efe8286610ce2565b601482019150610f0e8285610ecb565b602082019150610f1e8284610ecb565b6020820191508190509594505050505056fe608060405234801561001057600080fd5b50612ef1806100206000396000f3fe6080604052600436106100ec5760003560e01c8063a9c827b81161008a578063e2b375a911610059578063e2b375a9146102dd578063e3f197a014610306578063f560c7341461032f578063fe54aae91461036c576100f3565b8063a9c827b814610231578063b5625e301461025c578063c45a015514610285578063dd16b4b2146102b0576100f3565b80632ef8cdbe116100c65780632ef8cdbe1461018957806371d07b18146101b45780638da5cb5b146101dd578063a2dde89314610208576100f3565b806319ab453c146100f85780631b5269bb146101215780632471f3141461014c576100f3565b366100f357005b600080fd5b34801561010457600080fd5b5061011f600480360381019061011a9190611be4565b610395565b005b34801561012d57600080fd5b50610136610533565b6040516101439190611c2a565b60405180910390f35b34801561015857600080fd5b50610173600480360381019061016e9190611c71565b610539565b6040516101809190611cad565b60405180910390f35b34801561019557600080fd5b5061019e610578565b6040516101ab9190611d27565b60405180910390f35b3480156101c057600080fd5b506101db60048036038101906101d69190611e89565b61059c565b005b3480156101e957600080fd5b506101f2610738565b6040516101ff9190611cad565b60405180910390f35b34801561021457600080fd5b5061022f600480360381019061022a9190611f1c565b610762565b005b34801561023d57600080fd5b5061024661089f565b6040516102539190611cad565b60405180910390f35b34801561026857600080fd5b50610283600480360381019061027e919061204a565b6108c5565b005b34801561029157600080fd5b5061029a610ae9565b6040516102a79190611cad565b60405180910390f35b3480156102bc57600080fd5b506102c5610b0f565b6040516102d4939291906121a4565b60405180910390f35b3480156102e957600080fd5b5061030460048036038101906102ff9190611be4565b610c37565b005b34801561031257600080fd5b5061032d600480360381019061032891906121e9565b611243565b005b34801561033b57600080fd5b5061035660048036038101906103519190611c71565b6113b2565b6040516103639190611cad565b60405180910390f35b34801561037857600080fd5b50610393600480360381019061038e9190611e89565b6113f1565b005b600260149054906101000a900460ff16156103e5576040517f08c379a00000000000000000000000000000000000000000000000000000000081526004016103dc906122c6565b60405180910390fd5b6001600260146101000a81548160ff021916908315150217905550610408611549565b600160006101000a81548173ffffffffffffffffffffffffffffffffffffffff021916908373ffffffffffffffffffffffffffffffffffffffff160217905550600160009054906101000a900473ffffffffffffffffffffffffffffffffffffffff1673ffffffffffffffffffffffffffffffffffffffff16632ef8cdbe6040518163ffffffff1660e01b815260040160206040518083038186803b1580156104b057600080fd5b505afa1580156104c4573d6000803e3d6000fd5b505050506040513d601f19601f820116820180604052508101906104e89190612324565b6000806101000a81548173ffffffffffffffffffffffffffffffffffffffff021916908373ffffffffffffffffffffffffffffffffffffffff16021790555061053081611551565b50565b60045481565b6005818154811061054957600080fd5b906000526020600020016000915054906101000a900473ffffffffffffffffffffffffffffffffffffffff1681565b60008054906101000a900473ffffffffffffffffffffffffffffffffffffffff1681565b6105a46116a8565b60008585856040516020016105bb939291906123ba565b6040516020818303038152906040528051906020012060001c905060008054906101000a900473ffffffffffffffffffffffffffffffffffffffff1673ffffffffffffffffffffffffffffffffffffffff1663469c238c61061a610738565b898487876040518663ffffffff1660e01b815260040161063e9594939291906124a2565b600060405180830381600087803b15801561065857600080fd5b505af115801561066c573d6000803e3d6000fd5b505050508573ffffffffffffffffffffffffffffffffffffffff166323b872dd3086886040518463ffffffff1660e01b81526004016106ad939291906124f9565b600060405180830381600087803b1580156106c757600080fd5b505af11580156106db573d6000803e3d6000fd5b505050508373ffffffffffffffffffffffffffffffffffffffff167f43734303d11078efad5d02b38924b4e91a189fb2cbbcd429fc52d9f8cedbcdc78787604051610727929190612530565b60405180910390a250505050505050565b6000600260009054906101000a900473ffffffffffffffffffffffffffffffffffffffff16905090565b61076a6116a8565b600073ffffffffffffffffffffffffffffffffffffffff168373ffffffffffffffffffffffffffffffffffffffff1614156107da576040517f08c379a00000000000000000000000000000000000000000000000000000000081526004016107d1906125cb565b60405180910390fd5b60008373ffffffffffffffffffffffffffffffffffffffff16905060008054906101000a900473ffffffffffffffffffffffffffffffffffffffff1673ffffffffffffffffffffffffffffffffffffffff1663469c238c610839610738565b878487876040518663ffffffff1660e01b815260040161085d9594939291906124a2565b600060405180830381600087803b15801561087757600080fd5b505af115801561088b573d6000803e3d6000fd5b5050505061089884611726565b5050505050565b600660009054906101000a900473ffffffffffffffffffffffffffffffffffffffff1681565b6108cd6116a8565b6000831180156108de575083518311155b61091d576040517f08c379a00000000000000000000000000000000000000000000000000000000081526004016109149061265d565b60405180910390fd5b6000848460405160200161093292919061270d565b6040516020818303038152906040528051906020012060001c905060008054906101000a900473ffffffffffffffffffffffffffffffffffffffff1673ffffffffffffffffffffffffffffffffffffffff1663469c238c610991610738565b888487876040518663ffffffff1660e01b81526004016109b59594939291906124a2565b600060405180830381600087803b1580156109cf57600080fd5b505af11580156109e3573d6000803e3d6000fd5b5050505084600390805190602001906109fd929190611acb565b50836004819055508367ffffffffffffffff811115610a1f57610a1e611d58565b5b604051908082528060200260200182016040528015610a4d5781602001602082028036833780820191505090505b5060059080519060200190610a63929190611acb565b506000600660006101000a81548173ffffffffffffffffffffffffffffffffffffffff021916908373ffffffffffffffffffffffffffffffffffffffff1602179055507fd994657140a4a583036dd074c8111cd20e807a0989e3b2aa780c318d897d6e8985600454604051610ad9929190612735565b60405180910390a1505050505050565b600160009054906101000a900473ffffffffffffffffffffffffffffffffffffffff1681565b6060600060606003600454600582805480602002602001604051908101604052809291908181526020018280548015610b9d57602002820191906000526020600020905b8160009054906101000a900473ffffffffffffffffffffffffffffffffffffffff1673ffffffffffffffffffffffffffffffffffffffff1681526020019060010190808311610b53575b5050505050925080805480602002602001604051908101604052809291908181526020018280548015610c2557602002820191906000526020600020905b8160009054906101000a900473ffffffffffffffffffffffffffffffffffffffff1673ffffffffffffffffffffffffffffffffffffffff1681526020019060010190808311610bdb575b50505050509050925092509250909192565b600073ffffffffffffffffffffffffffffffffffffffff168173ffffffffffffffffffffffffffffffffffffffff161415610ca7576040517f08c379a0000000000000000000000000000000000000000000000000000000008152600401610c9e906127d7565b60405180910390fd5b600080600090505b600380549050811015610d4f57610cc4611549565b73ffffffffffffffffffffffffffffffffffffffff1660038281548110610cee57610ced6127f7565b5b9060005260206000200160009054906101000a900473ffffffffffffffffffffffffffffffffffffffff1673ffffffffffffffffffffffffffffffffffffffff161415610d3e5760019150610d4f565b80610d4890612855565b9050610caf565b5080610d90576040517f08c379a0000000000000000000000000000000000000000000000000000000008152600401610d8790612910565b60405180910390fd5b8173ffffffffffffffffffffffffffffffffffffffff16600660009054906101000a900473ffffffffffffffffffffffffffffffffffffffff1673ffffffffffffffffffffffffffffffffffffffff1614156110b05760008080600090505b600580549050811015610f465781158015610e745750600073ffffffffffffffffffffffffffffffffffffffff1660058281548110610e3157610e306127f7565b5b9060005260206000200160009054906101000a900473ffffffffffffffffffffffffffffffffffffffff1673ffffffffffffffffffffffffffffffffffffffff16145b15610e8157809250600191505b610e89611549565b73ffffffffffffffffffffffffffffffffffffffff1660058281548110610eb357610eb26127f7565b5b9060005260206000200160009054906101000a900473ffffffffffffffffffffffffffffffffffffffff1673ffffffffffffffffffffffffffffffffffffffff161415610f35576040517f08c379a0000000000000000000000000000000000000000000000000000000008152600401610f2c9061297c565b60405180910390fd5b80610f3f90612855565b9050610def565b506001600454610f56919061299c565b821415610fcc57610f6684611726565b60045467ffffffffffffffff811115610f8257610f81611d58565b5b604051908082528060200260200182016040528015610fb05781602001602082028036833780820191505090505b5060059080519060200190610fc6929190611acb565b50611031565b610fd4611549565b60058381548110610fe857610fe76127f7565b5b9060005260206000200160006101000a81548173ffffffffffffffffffffffffffffffffffffffff021916908373ffffffffffffffffffffffffffffffffffffffff1602179055505b8373ffffffffffffffffffffffffffffffffffffffff16611050611549565b73ffffffffffffffffffffffffffffffffffffffff167f2ce3360ece46efd8bf19eaf6e38f377526d731e3adc61f96b348cfe38e31a47560018561109491906129d0565b6040516110a19190611c2a565b60405180910390a3505061123f565b600160045414156110c9576110c482611726565b6111d1565b60045467ffffffffffffffff8111156110e5576110e4611d58565b5b6040519080825280602002602001820160405280156111135781602001602082028036833780820191505090505b5060059080519060200190611129929190611acb565b50611132611549565b6005600081548110611147576111466127f7565b5b9060005260206000200160006101000a81548173ffffffffffffffffffffffffffffffffffffffff021916908373ffffffffffffffffffffffffffffffffffffffff16021790555081600660006101000a81548173ffffffffffffffffffffffffffffffffffffffff021916908373ffffffffffffffffffffffffffffffffffffffff1602179055505b8173ffffffffffffffffffffffffffffffffffffffff166111f0611549565b73ffffffffffffffffffffffffffffffffffffffff167f2ce3360ece46efd8bf19eaf6e38f377526d731e3adc61f96b348cfe38e31a47560016040516112369190612a61565b60405180910390a35b5050565b61124b6116a8565b60008484604051602001611260929190612a7c565b6040516020818303038152906040528051906020012060001c905060008054906101000a900473ffffffffffffffffffffffffffffffffffffffff1673ffffffffffffffffffffffffffffffffffffffff1663469c238c6112bf610738565b888487876040518663ffffffff1660e01b81526004016112e39594939291906124a2565b600060405180830381600087803b1580156112fd57600080fd5b505af1158015611311573d6000803e3d6000fd5b505050508373ffffffffffffffffffffffffffffffffffffffff166108fc869081150290604051600060405180830381858888f1935050505015801561135b573d6000803e3d6000fd5b508373ffffffffffffffffffffffffffffffffffffffff167f566e45b1c8057e725bf62796a7f1d37ae294393cab069725a09daddd1af98b79866040516113a29190611c2a565b60405180910390a2505050505050565b600381815481106113c257600080fd5b906000526020600020016000915054906101000a900473ffffffffffffffffffffffffffffffffffffffff1681565b6113f96116a8565b6000858585604051602001611410939291906123ba565b6040516020818303038152906040528051906020012060001c905060008054906101000a900473ffffffffffffffffffffffffffffffffffffffff1673ffffffffffffffffffffffffffffffffffffffff1663469c238c61146f610738565b898487876040518663ffffffff1660e01b81526004016114939594939291906124a2565b600060405180830381600087803b1580156114ad57600080fd5b505af11580156114c1573d6000803e3d6000fd5b505050506114f084868873ffffffffffffffffffffffffffffffffffffffff166117c89092919063ffffffff16565b8373ffffffffffffffffffffffffffffffffffffffff167f33c35f9541201e342d5e7467016e65a0a06182eb12a5f17103f71cec95b6cb298787604051611538929190612530565b60405180910390a250505050505050565b600033905090565b600260009054906101000a900473ffffffffffffffffffffffffffffffffffffffff1673ffffffffffffffffffffffffffffffffffffffff168173ffffffffffffffffffffffffffffffffffffffff1614156115e2576040517f08c379a00000000000000000000000000000000000000000000000000000000081526004016115d990612b1a565b60405180910390fd5b6000600260009054906101000a900473ffffffffffffffffffffffffffffffffffffffff16905081600260006101000a81548173ffffffffffffffffffffffffffffffffffffffff021916908373ffffffffffffffffffffffffffffffffffffffff1602179055508173ffffffffffffffffffffffffffffffffffffffff168173ffffffffffffffffffffffffffffffffffffffff167f8be0079c531659141344cd1fd0a4f28419497f9722a3daafe3b4186f6b6457e060405160405180910390a35050565b6116b0611549565b73ffffffffffffffffffffffffffffffffffffffff166116ce610738565b73ffffffffffffffffffffffffffffffffffffffff1614611724576040517f08c379a000000000000000000000000000000000000000000000000000000000815260040161171b90612b86565b60405180910390fd5b565b600160009054906101000a900473ffffffffffffffffffffffffffffffffffffffff1673ffffffffffffffffffffffffffffffffffffffff166345289ba761176c610738565b836040518363ffffffff1660e01b815260040161178a929190612ba6565b600060405180830381600087803b1580156117a457600080fd5b505af11580156117b8573d6000803e3d6000fd5b505050506117c581611551565b50565b6118498363a9059cbb60e01b84846040516024016117e7929190612530565b604051602081830303815290604052907bffffffffffffffffffffffffffffffffffffffffffffffffffffffff19166020820180517bffffffffffffffffffffffffffffffffffffffffffffffffffffffff838183161783525050505061184e565b505050565b60006118b0826040518060400160405280602081526020017f5361666545524332303a206c6f772d6c6576656c2063616c6c206661696c65648152508573ffffffffffffffffffffffffffffffffffffffff166119159092919063ffffffff16565b905060008151111561191057808060200190518101906118d09190612c07565b61190f576040517f08c379a000000000000000000000000000000000000000000000000000000000815260040161190690612ca6565b60405180910390fd5b5b505050565b6060611924848460008561192d565b90509392505050565b606082471015611972576040517f08c379a000000000000000000000000000000000000000000000000000000000815260040161196990612d38565b60405180910390fd5b61197b85611a41565b6119ba576040517f08c379a00000000000000000000000000000000000000000000000000000000081526004016119b190612da4565b60405180910390fd5b6000808673ffffffffffffffffffffffffffffffffffffffff1685876040516119e39190612e3e565b60006040518083038185875af1925050503d8060008114611a20576040519150601f19603f3d011682016040523d82523d6000602084013e611a25565b606091505b5091509150611a35828286611a64565b92505050949350505050565b6000808273ffffffffffffffffffffffffffffffffffffffff163b119050919050565b60608315611a7457829050611ac4565b600083511115611a875782518084602001fd5b816040517f08c379a0000000000000000000000000000000000000000000000000000000008152600401611abb9190612e99565b60405180910390fd5b9392505050565b828054828255906000526020600020908101928215611b44579160200282015b82811115611b435782518260006101000a81548173ffffffffffffffffffffffffffffffffffffffff021916908373ffffffffffffffffffffffffffffffffffffffff16021790555091602001919060010190611aeb565b5b509050611b519190611b55565b5090565b5b80821115611b6e576000816000905550600101611b56565b5090565b6000604051905090565b600080fd5b600080fd5b600073ffffffffffffffffffffffffffffffffffffffff82169050919050565b6000611bb182611b86565b9050919050565b611bc181611ba6565b8114611bcc57600080fd5b50565b600081359050611bde81611bb8565b92915050565b600060208284031215611bfa57611bf9611b7c565b5b6000611c0884828501611bcf565b91505092915050565b6000819050919050565b611c2481611c11565b82525050565b6000602082019050611c3f6000830184611c1b565b92915050565b611c4e81611c11565b8114611c5957600080fd5b50565b600081359050611c6b81611c45565b92915050565b600060208284031215611c8757611c86611b7c565b5b6000611c9584828501611c5c565b91505092915050565b611ca781611ba6565b82525050565b6000602082019050611cc26000830184611c9e565b92915050565b6000819050919050565b6000611ced611ce8611ce384611b86565b611cc8565b611b86565b9050919050565b6000611cff82611cd2565b9050919050565b6000611d1182611cf4565b9050919050565b611d2181611d06565b82525050565b6000602082019050611d3c6000830184611d18565b92915050565b600080fd5b6000601f19601f8301169050919050565b7f4e487b7100000000000000000000000000000000000000000000000000000000600052604160045260246000fd5b611d9082611d47565b810181811067ffffffffffffffff82111715611daf57611dae611d58565b5b80604052505050565b6000611dc2611b72565b9050611dce8282611d87565b919050565b600067ffffffffffffffff821115611dee57611ded611d58565b5b602082029050919050565b600080fd5b6000611e11611e0c84611dd3565b611db8565b90508060208402830185811115611e2b57611e2a611df9565b5b835b81811015611e545780611e408882611c5c565b845260208401935050602081019050611e2d565b5050509392505050565b600082601f830112611e7357611e72611d42565b5b6008611e80848285611dfe565b91505092915050565b6000806000806000806101a08789031215611ea757611ea6611b7c565b5b6000611eb589828a01611e5e565b965050610100611ec789828a01611bcf565b955050610120611ed989828a01611c5c565b945050610140611eeb89828a01611bcf565b935050610160611efd89828a01611c5c565b925050610180611f0f89828a01611c5c565b9150509295509295509295565b6000806000806101608587031215611f3757611f36611b7c565b5b6000611f4587828801611e5e565b945050610100611f5787828801611bcf565b935050610120611f6987828801611c5c565b925050610140611f7b87828801611c5c565b91505092959194509250565b600067ffffffffffffffff821115611fa257611fa1611d58565b5b602082029050602081019050919050565b6000611fc6611fc184611f87565b611db8565b90508083825260208201905060208402830185811115611fe957611fe8611df9565b5b835b818110156120125780611ffe8882611bcf565b845260208401935050602081019050611feb565b5050509392505050565b600082601f83011261203157612030611d42565b5b8135612041848260208601611fb3565b91505092915050565b6000806000806000610180868803121561206757612066611b7c565b5b600061207588828901611e5e565b95505061010086013567ffffffffffffffff81111561209757612096611b81565b5b6120a38882890161201c565b9450506101206120b588828901611c5c565b9350506101406120c788828901611c5c565b9250506101606120d988828901611c5c565b9150509295509295909350565b600081519050919050565b600082825260208201905092915050565b6000819050602082019050919050565b61211b81611ba6565b82525050565b600061212d8383612112565b60208301905092915050565b6000602082019050919050565b6000612151826120e6565b61215b81856120f1565b935061216683612102565b8060005b8381101561219757815161217e8882612121565b975061218983612139565b92505060018101905061216a565b5085935050505092915050565b600060608201905081810360008301526121be8186612146565b90506121cd6020830185611c1b565b81810360408301526121df8184612146565b9050949350505050565b6000806000806000610180868803121561220657612205611b7c565b5b600061221488828901611e5e565b95505061010061222688828901611c5c565b94505061012061223888828901611bcf565b93505061014061224a88828901611c5c565b92505061016061225c88828901611c5c565b9150509295509295909350565b600082825260208201905092915050565b7f66756e6374696f6e20666f7262696464656e0000000000000000000000000000600082015250565b60006122b0601283612269565b91506122bb8261227a565b602082019050919050565b600060208201905081810360008301526122df816122a3565b9050919050565b60006122f182611ba6565b9050919050565b612301816122e6565b811461230c57600080fd5b50565b60008151905061231e816122f8565b92915050565b60006020828403121561233a57612339611b7c565b5b60006123488482850161230f565b91505092915050565b60008160601b9050919050565b600061236982612351565b9050919050565b600061237b8261235e565b9050919050565b61239361238e82611ba6565b612370565b82525050565b6000819050919050565b6123b46123af82611c11565b612399565b82525050565b60006123c68286612382565b6014820191506123d682856123a3565b6020820191506123e68284612382565b601482019150819050949350505050565b600060089050919050565b600081905092915050565b6000819050919050565b61242081611c11565b82525050565b60006124328383612417565b60208301905092915050565b6000602082019050919050565b612454816123f7565b61245e8184612402565b92506124698261240d565b8060005b8381101561249a5781516124818782612426565b965061248c8361243e565b92505060018101905061246d565b505050505050565b6000610180820190506124b86000830188611c9e565b6124c5602083018761244b565b6124d3610120830186611c1b565b6124e1610140830185611c1b565b6124ef610160830184611c1b565b9695505050505050565b600060608201905061250e6000830186611c9e565b61251b6020830185611c9e565b6125286040830184611c1b565b949350505050565b60006040820190506125456000830185611c9e565b6125526020830184611c1b565b9392505050565b7f53616665626f783a206e6577206f776e657220697320746865207a65726f206160008201527f6464726573730000000000000000000000000000000000000000000000000000602082015250565b60006125b5602683612269565b91506125c082612559565b604082019050919050565b600060208201905081810360008301526125e4816125a8565b9050919050565b7f736574536f6369616c5265636f7665723a206e656564477561726469616e734e60008201527f756d206572726f72000000000000000000000000000000000000000000000000602082015250565b6000612647602883612269565b9150612652826125eb565b604082019050919050565b600060208201905081810360008301526126768161263a565b9050919050565b600081905092915050565b61269181611ba6565b82525050565b60006126a38383612688565b60208301905092915050565b60006126ba826120e6565b6126c4818561267d565b93506126cf83612102565b8060005b838110156127005781516126e78882612697565b97506126f283612139565b9250506001810190506126d3565b5085935050505092915050565b600061271982856126af565b915061272582846123a3565b6020820191508190509392505050565b6000604082019050818103600083015261274f8185612146565b905061275e6020830184611c1b565b9392505050565b7f7472616e736665724f776e657273686970323a206e65774f776e65722063616e60008201527f2774206265203078303000000000000000000000000000000000000000000000602082015250565b60006127c1602a83612269565b91506127cc82612765565b604082019050919050565b600060208201905081810360008301526127f0816127b4565b9050919050565b7f4e487b7100000000000000000000000000000000000000000000000000000000600052603260045260246000fd5b7f4e487b7100000000000000000000000000000000000000000000000000000000600052601160045260246000fd5b600061286082611c11565b91507fffffffffffffffffffffffffffffffffffffffffffffffffffffffffffffffff82141561289357612892612826565b5b600182019050919050565b7f7472616e736665724f776e657273686970323a20796f75277265206e6f74207460008201527f686520477561726469616e000000000000000000000000000000000000000000602082015250565b60006128fa602b83612269565b91506129058261289e565b604082019050919050565b60006020820190508181036000830152612929816128ed565b9050919050565b7f7472616e736665724f776e657273686970323a20646f6e277420726570656174600082015250565b6000612966602083612269565b915061297182612930565b602082019050919050565b6000602082019050818103600083015261299581612959565b9050919050565b60006129a782611c11565b91506129b283611c11565b9250828210156129c5576129c4612826565b5b828203905092915050565b60006129db82611c11565b91506129e683611c11565b9250827fffffffffffffffffffffffffffffffffffffffffffffffffffffffffffffffff03821115612a1b57612a1a612826565b5b828201905092915050565b6000819050919050565b6000612a4b612a46612a4184612a26565b611cc8565b611c11565b9050919050565b612a5b81612a30565b82525050565b6000602082019050612a766000830184612a52565b92915050565b6000612a8882856123a3565b602082019150612a988284612382565b6014820191508190509392505050565b7f53616665626f783a206e65774f776e6572206973207468652073616d6520776960008201527f746820746865206f776e65720000000000000000000000000000000000000000602082015250565b6000612b04602c83612269565b9150612b0f82612aa8565b604082019050919050565b60006020820190508181036000830152612b3381612af7565b9050919050565b7f53616665626f783a2063616c6c6572206973206e6f7420746865206f776e6572600082015250565b6000612b70602083612269565b9150612b7b82612b3a565b602082019050919050565b60006020820190508181036000830152612b9f81612b63565b9050919050565b6000604082019050612bbb6000830185611c9e565b612bc86020830184611c9e565b9392505050565b60008115159050919050565b612be481612bcf565b8114612bef57600080fd5b50565b600081519050612c0181612bdb565b92915050565b600060208284031215612c1d57612c1c611b7c565b5b6000612c2b84828501612bf2565b91505092915050565b7f5361666545524332303a204552433230206f7065726174696f6e20646964206e60008201527f6f74207375636365656400000000000000000000000000000000000000000000602082015250565b6000612c90602a83612269565b9150612c9b82612c34565b604082019050919050565b60006020820190508181036000830152612cbf81612c83565b9050919050565b7f416464726573733a20696e73756666696369656e742062616c616e636520666f60008201527f722063616c6c0000000000000000000000000000000000000000000000000000602082015250565b6000612d22602683612269565b9150612d2d82612cc6565b604082019050919050565b60006020820190508181036000830152612d5181612d15565b9050919050565b7f416464726573733a2063616c6c20746f206e6f6e2d636f6e7472616374000000600082015250565b6000612d8e601d83612269565b9150612d9982612d58565b602082019050919050565b60006020820190508181036000830152612dbd81612d81565b9050919050565b600081519050919050565b600081905092915050565b60005b83811015612df8578082015181840152602081019050612ddd565b83811115612e07576000848401525b50505050565b6000612e1882612dc4565b612e228185612dcf565b9350612e32818560208601612dda565b80840191505092915050565b6000612e4a8284612e0d565b915081905092915050565b600081519050919050565b6000612e6b82612e55565b612e758185612269565b9350612e85818560208601612dda565b612e8e81611d47565b840191505092915050565b60006020820190508181036000830152612eb38184612e60565b90509291505056fea26469706673582212202ec4d48cf7752137ccff04395d621648e63c3c278a638cff7d8d411fc011b71564736f6c63430008090033a26469706673582212207b000161be4b5bf1bb2a61d9c630599505538aca1563ee6421f37c20e52ca84f64736f6c63430008090033",
  "linkReferences": {},
  "deployedLinkReferences": {}
}