{
  "_format": "hh-sol-artifact-1",
  "contractName": "ZKPass",
  "sourceName": "contracts/zkPass/ZKPass.sol",
  "abi": [
    {
      "inputs": [],
      "stateMutability": "nonpayable",
      "type": "constructor"
    },
    {
      "anonymous": false,
      "inputs": [
        {
          "indexed": true,
          "internalType": "address",
          "name": "user",
          "type": "address"
        },
        {
          "indexed": true,
          "internalType": "uint256",
          "name": "pwdhash",
          "type": "uint256"
        }
      ],
      "name": "SetPassword",
      "type": "event"
    },
    {
      "anonymous": false,
      "inputs": [
        {
          "indexed": true,
          "internalType": "address",
          "name": "user",
          "type": "address"
        },
        {
          "indexed": true,
          "internalType": "uint256",
          "name": "nonce",
          "type": "uint256"
        }
      ],
      "name": "Verified",
      "type": "event"
    },
    {
      "inputs": [
        {
          "internalType": "address",
          "name": "",
          "type": "address"
        }
      ],
      "name": "nonceOf",
      "outputs": [
        {
          "internalType": "uint256",
          "name": "",
          "type": "uint256"
        }
      ],
      "stateMutability": "view",
      "type": "function"
    },
    {
      "inputs": [
        {
          "internalType": "address",
          "name": "",
          "type": "address"
        }
      ],
      "name": "pwdhashOf",
      "outputs": [
        {
          "internalType": "uint256",
          "name": "",
          "type": "uint256"
        }
      ],
      "stateMutability": "view",
      "type": "function"
    },
    {
      "inputs": [
        {
          "internalType": "uint256[8]",
          "name": "proof1",
          "type": "uint256[8]"
        },
        {
          "internalType": "uint256",
          "name": "expiration1",
          "type": "uint256"
        },
        {
          "internalType": "uint256",
          "name": "allhash1",
          "type": "uint256"
        },
        {
          "internalType": "uint256[8]",
          "name": "proof2",
          "type": "uint256[8]"
        },
        {
          "internalType": "uint256",
          "name": "pwdhash2",
          "type": "uint256"
        },
        {
          "internalType": "uint256",
          "name": "expiration2",
          "type": "uint256"
        },
        {
          "internalType": "uint256",
          "name": "allhash2",
          "type": "uint256"
        }
      ],
      "name": "resetPassword",
      "outputs": [],
      "stateMutability": "nonpayable",
      "type": "function"
    },
    {
      "inputs": [
        {
          "internalType": "address",
          "name": "user",
          "type": "address"
        },
        {
          "internalType": "uint256[8]",
          "name": "proof",
          "type": "uint256[8]"
        },
        {
          "internalType": "uint256",
          "name": "datahash",
          "type": "uint256"
        },
        {
          "internalType": "uint256",
          "name": "expiration",
          "type": "uint256"
        },
        {
          "internalType": "uint256",
          "name": "allhash",
          "type": "uint256"
        }
      ],
      "name": "verify",
      "outputs": [],
      "stateMutability": "nonpayable",
      "type": "function"
    }
  ],
  "bytecode": "0x60806040526040516100109061007e565b604051809103906000f08015801561002c573d6000803e3d6000fd5b506000806101000a81548173ffffffffffffffffffffffffffffffffffffffff021916908373ffffffffffffffffffffffffffffffffffffffff16021790555034801561007857600080fd5b5061008b565b611b828061120683390190565b61116c8061009a6000396000f3fe608060405234801561001057600080fd5b506004361061004c5760003560e01c806344fccd9414610051578063469c238c146100815780635c922c7e1461009d578063ed2a2d64146100b9575b600080fd5b61006b600480360381019061006691906107d1565b6100e9565b6040516100789190610817565b60405180910390f35b61009b600480360381019061009691906109a5565b610101565b005b6100b760048036038101906100b29190610a24565b610338565b005b6100d360048036038101906100ce91906107d1565b610552565b6040516100e09190610817565b60405180910390f35b60016020528060005260406000206000915090505481565b814210610143576040517f08c379a000000000000000000000000000000000000000000000000000000000815260040161013a90610b2a565b60405180910390fd5b6000600160008773ffffffffffffffffffffffffffffffffffffffff1673ffffffffffffffffffffffffffffffffffffffff16815260200190815260200160002054905060008114156101cb576040517f08c379a00000000000000000000000000000000000000000000000000000000081526004016101c290610b96565b60405180910390fd5b6000600260008873ffffffffffffffffffffffffffffffffffffffff1673ffffffffffffffffffffffffffffffffffffffff168152602001908152602001600020549050600060088546848960405160200161022a9493929190610bd7565b6040516020818303038152906040528051906020012060001c61024d9190610c83565b905061025b8784838761056a565b61029a576040517f08c379a000000000000000000000000000000000000000000000000000000000815260040161029190610d26565b60405180910390fd5b6001826102a79190610d46565b600260008a73ffffffffffffffffffffffffffffffffffffffff1673ffffffffffffffffffffffffffffffffffffffff16815260200190815260200160002081905550818873ffffffffffffffffffffffffffffffffffffffff167f7c4bd613345b3aec2140d4c4c96782cda06d72b1a593fbb20a72300354f4c33660405160405180910390a35050505050505050565b600160003373ffffffffffffffffffffffffffffffffffffffff1673ffffffffffffffffffffffffffffffffffffffff168152602001908152602001600020548314156103ba576040517f08c379a00000000000000000000000000000000000000000000000000000000081526004016103b190610e0e565b60405180910390fd5b6000600260003373ffffffffffffffffffffffffffffffffffffffff1673ffffffffffffffffffffffffffffffffffffffff16815260200190815260200160002054905060008114156104a35783600160003373ffffffffffffffffffffffffffffffffffffffff1673ffffffffffffffffffffffffffffffffffffffff168152602001908152602001600020819055506001600260003373ffffffffffffffffffffffffffffffffffffffff1673ffffffffffffffffffffffffffffffffffffffff1681526020019081526020016000208190555061049e338660008686610101565b610504565b6104b1338960008a8a610101565b83600160003373ffffffffffffffffffffffffffffffffffffffff1673ffffffffffffffffffffffffffffffffffffffff16815260200190815260200160002081905550610503338660008686610101565b5b833373ffffffffffffffffffffffffffffffffffffffff167f83c7dcbfcea2268ed68c3bcce0f9e0f891d6eed88b26725b87bc007e1c269f4760405160405180910390a35050505050505050565b60026020528060005260406000206000915090505481565b60008060009054906101000a900473ffffffffffffffffffffffffffffffffffffffff1673ffffffffffffffffffffffffffffffffffffffff166311479fea6040518060400160405280886000600881106105c8576105c7610e2e565b5b60200201518152602001886001600881106105e6576105e5610e2e565b5b6020020151815250604051806040016040528060405180604001604052808b60026008811061061857610617610e2e565b5b602002015181526020018b60036008811061063657610635610e2e565b5b6020020151815250815260200160405180604001604052808b60046008811061066257610661610e2e565b5b602002015181526020018b6005600881106106805761067f610e2e565b5b602002015181525081525060405180604001604052808a6006600881106106aa576106a9610e2e565b5b602002015181526020018a6007600881106106c8576106c7610e2e565b5b602002015181525060405180606001604052808a8152602001898152602001888152506040518563ffffffff1660e01b815260040161070a949392919061108a565b60206040518083038186803b15801561072257600080fd5b505afa158015610736573d6000803e3d6000fd5b505050506040513d601f19601f8201168201806040525081019061075a9190611109565b9050949350505050565b6000604051905090565b600080fd5b600073ffffffffffffffffffffffffffffffffffffffff82169050919050565b600061079e82610773565b9050919050565b6107ae81610793565b81146107b957600080fd5b50565b6000813590506107cb816107a5565b92915050565b6000602082840312156107e7576107e661076e565b5b60006107f5848285016107bc565b91505092915050565b6000819050919050565b610811816107fe565b82525050565b600060208201905061082c6000830184610808565b92915050565b600080fd5b6000601f19601f8301169050919050565b7f4e487b7100000000000000000000000000000000000000000000000000000000600052604160045260246000fd5b61088082610837565b810181811067ffffffffffffffff8211171561089f5761089e610848565b5b80604052505050565b60006108b2610764565b90506108be8282610877565b919050565b600067ffffffffffffffff8211156108de576108dd610848565b5b602082029050919050565b600080fd5b6108f7816107fe565b811461090257600080fd5b50565b600081359050610914816108ee565b92915050565b600061092d610928846108c3565b6108a8565b90508060208402830185811115610947576109466108e9565b5b835b81811015610970578061095c8882610905565b845260208401935050602081019050610949565b5050509392505050565b600082601f83011261098f5761098e610832565b5b600861099c84828561091a565b91505092915050565b600080600080600061018086880312156109c2576109c161076e565b5b60006109d0888289016107bc565b95505060206109e18882890161097a565b9450506101206109f388828901610905565b935050610140610a0588828901610905565b925050610160610a1788828901610905565b9150509295509295909350565b60008060008060008060006102a0888a031215610a4457610a4361076e565b5b6000610a528a828b0161097a565b975050610100610a648a828b01610905565b965050610120610a768a828b01610905565b955050610140610a888a828b0161097a565b945050610240610a9a8a828b01610905565b935050610260610aac8a828b01610905565b925050610280610abe8a828b01610905565b91505092959891949750929550565b600082825260208201905092915050565b7f5a4b506173733a3a7665726966793a2065787069726564000000000000000000600082015250565b6000610b14601783610acd565b9150610b1f82610ade565b602082019050919050565b60006020820190508181036000830152610b4381610b07565b9050919050565b7f5a4b506173733a3a7665726966793a2075736572206e6f742065786973740000600082015250565b6000610b80601e83610acd565b9150610b8b82610b4a565b602082019050919050565b60006020820190508181036000830152610baf81610b73565b9050919050565b6000819050919050565b610bd1610bcc826107fe565b610bb6565b82525050565b6000610be38287610bc0565b602082019150610bf38286610bc0565b602082019150610c038285610bc0565b602082019150610c138284610bc0565b60208201915081905095945050505050565b7f4e487b7100000000000000000000000000000000000000000000000000000000600052601260045260246000fd5b7f4e487b7100000000000000000000000000000000000000000000000000000000600052601160045260246000fd5b6000610c8e826107fe565b9150610c99836107fe565b925082610ca957610ca8610c25565b5b828204905092915050565b7f5a4b506173733a3a7665726966793a207665726966792070726f6f662066616960008201527f6c00000000000000000000000000000000000000000000000000000000000000602082015250565b6000610d10602183610acd565b9150610d1b82610cb4565b604082019050919050565b60006020820190508181036000830152610d3f81610d03565b9050919050565b6000610d51826107fe565b9150610d5c836107fe565b9250827fffffffffffffffffffffffffffffffffffffffffffffffffffffffffffffffff03821115610d9157610d90610c54565b5b828201905092915050565b7f5a4b506173733a3a726573657450617373776f72643a2070776468617368207460008201527f68652073616d6500000000000000000000000000000000000000000000000000602082015250565b6000610df8602783610acd565b9150610e0382610d9c565b604082019050919050565b60006020820190508181036000830152610e2781610deb565b9050919050565b7f4e487b7100000000000000000000000000000000000000000000000000000000600052603260045260246000fd5b600060029050919050565b600081905092915050565b6000819050919050565b610e86816107fe565b82525050565b6000610e988383610e7d565b60208301905092915050565b6000602082019050919050565b610eba81610e5d565b610ec48184610e68565b9250610ecf82610e73565b8060005b83811015610f00578151610ee78782610e8c565b9650610ef283610ea4565b925050600181019050610ed3565b505050505050565b600060029050919050565b600081905092915050565b6000819050919050565b600081905092915050565b610f3c81610e5d565b610f468184610f28565b9250610f5182610e73565b8060005b83811015610f82578151610f698782610e8c565b9650610f7483610ea4565b925050600181019050610f55565b505050505050565b6000610f968383610f33565b60408301905092915050565b6000602082019050919050565b610fb881610f08565b610fc28184610f13565b9250610fcd82610f1e565b8060005b83811015610ffe578151610fe58782610f8a565b9650610ff083610fa2565b925050600181019050610fd1565b505050505050565b600060039050919050565b600081905092915050565b6000819050919050565b6000602082019050919050565b61103c81611006565b6110468184611011565b92506110518261101c565b8060005b838110156110825781516110698782610e8c565b965061107483611026565b925050600181019050611055565b505050505050565b6000610160820190506110a06000830187610eb1565b6110ad6040830186610faf565b6110ba60c0830185610eb1565b6110c8610100830184611033565b95945050505050565b60008115159050919050565b6110e6816110d1565b81146110f157600080fd5b50565b600081519050611103816110dd565b92915050565b60006020828403121561111f5761111e61076e565b5b600061112d848285016110f4565b9150509291505056fea26469706673582212201601d06570f3eecf981a608189514499314ba344c1094d3e4e3c119a417aa2c564736f6c63430008090033608060405234801561001057600080fd5b50611b62806100206000396000f3fe608060405234801561001057600080fd5b506004361061002b5760003560e01c806311479fea14610030575b600080fd5b61004a60048036038101906100459190611609565b610060565b604051610057919061168d565b60405180910390f35b600061006a6111d9565b604051806040016040528087600060028110610089576100886116a8565b5b60200201518152602001876001600281106100a7576100a66116a8565b5b6020020151815250816000018190525060405180604001604052806040518060400160405280886000600281106100e1576100e06116a8565b5b60200201516000600281106100f9576100f86116a8565b5b6020020151815260200188600060028110610117576101166116a8565b5b602002015160016002811061012f5761012e6116a8565b5b6020020151815250815260200160405180604001604052808860016002811061015b5761015a6116a8565b5b6020020151600060028110610173576101726116a8565b5b6020020151815260200188600160028110610191576101906116a8565b5b60200201516001600281106101a9576101a86116a8565b5b602002015181525081525081602001819052506040518060400160405280856000600281106101db576101da6116a8565b5b60200201518152602001856001600281106101f9576101f86116a8565b5b602002015181525081604001819052506000600367ffffffffffffffff81111561022657610225611340565b5b6040519080825280602002602001820160405280156102545781602001602082028036833780820191505090505b50905060005b60038110156102ad57848160038110610276576102756116a8565b5b602002015182828151811061028e5761028d6116a8565b5b60200260200101818152505080806102a590611706565b91505061025a565b5060006102ba82846102da565b14156102cb576001925050506102d2565b6000925050505b949350505050565b6000807f30644e72e131a029b85045b68181585d2833e84879b9709143e1f593f00000019050600061030a6104cd565b905080608001515160018651610320919061174f565b14610360576040517f08c379a000000000000000000000000000000000000000000000000000000000815260040161035790611802565b60405180910390fd5b60006040518060400160405280600081526020016000815250905060005b865181101561044f578387828151811061039b5761039a6116a8565b5b6020026020010151106103e3576040517f08c379a00000000000000000000000000000000000000000000000000000000081526004016103da9061186e565b60405180910390fd5b61043a8261043585608001516001856103fc919061174f565b8151811061040d5761040c6116a8565b5b60200260200101518a8581518110610428576104276116a8565b5b60200260200101516109c0565b610a9d565b9150808061044790611706565b91505061037e565b5061047981836080015160008151811061046c5761046b6116a8565b5b6020026020010151610a9d565b90506104af61048b8660000151610ba0565b8660200151846000015185602001518587604001518b604001518960600151610c45565b6104bf57600193505050506104c7565b600093505050505b92915050565b6104d561120c565b60405180604001604052807f125f6eaef6f9024d2334367e0d975496f3a6f0ccc32e1e94a7774b9543e57bac81526020017f05e88387adff41ede226982abfcba319a805e91c648e5d7d2204ebdd75feabd48152508160000181905250604051806040016040528060405180604001604052807f24dcfa1be883d9f8318abf9411fd5203bfa7b458904603aa8e943426637913e581526020017e49205022b2a32fd249dbde5b6e5289f412bb4cee7e56b2964f403c1b051431815250815260200160405180604001604052807f0e552925bc49ee16091fa975cc77a082c16412fa2d847651288da03d6625189f81526020017f018a5a1792260c52b4347a8d4c92b0ddd753993b119ca88a8a9de5e3d5282cc48152508152508160200181905250604051806040016040528060405180604001604052807f198e9393920d483a7260bfb731fb5d25f1aa493335a9e71297e485b7aef312c281526020017f1800deef121f1e76426a00665e5c4479674322d4f75edadd46debd5cd992f6ed815250815260200160405180604001604052807f090689d0585ff075ec9e99ad690c3395bc4b313370b38ef355acdadcd122975b81526020017f12c85ea5db8c6deb4aab71808dcb408fe3d1e7690c43d37b4ce6cc0166fa7daa8152508152508160400181905250604051806040016040528060405180604001604052807f15cd1fdae010c3db1bfad63af7195260fa5e1598626cfc2656200e17a87b907381526020017f26987108c7d96636344aff406231dbc28da7522b140486ab7491457b38a2bce3815250815260200160405180604001604052807f05a50c00429064ca10445069573f66c28230746ba51945334e3a34ae2609986f81526020017f2f769199787e38564ee0f8f7372d76012bc9dc1f821a54731935a3652fd0d0bd8152508152508160600181905250600467ffffffffffffffff81111561079b5761079a611340565b5b6040519080825280602002602001820160405280156107d457816020015b6107c1611253565b8152602001906001900390816107b95790505b50816080018190525060405180604001604052807f196bbee8bc7c94aede2e213a2f88a114b8308f311b3f12c06a813d72cfaab2a581526020017f2d2a5b9efbd6e475b2622e1e17b646ceeab35a2c25bf27b9c1aa35b9817d8e99815250816080015160008151811061084a576108496116a8565b5b602002602001018190525060405180604001604052807f050d5087fbe930eb64e33faf77136d4361a02fe7671325e5548c35e354e8c48381526020017f0a5fb29b2c66acb1eb8bd5d7811749e09971fb5490c1a19c41aa849cc22f61ad81525081608001516001815181106108c2576108c16116a8565b5b602002602001018190525060405180604001604052807f05057729ee02713b224c6d4c74d41e93163ff174b2a29ed2a1bb4b51471369f181526020017f0158edbb9019f5e94dc753014a0f3962abc3f14ca25a751c39cfe023ca9a7b00815250816080015160028151811061093a576109396116a8565b5b602002602001018190525060405180604001604052807f18aaea8b5292832a8458e93b0c9b9f3792521b8d24c2d941d5cb244547ea871181526020017f1c76ca9c25be9414cb964ce77e9110cd6d3fd9195a7a7d4c5761443d5836fa0b81525081608001516003815181106109b2576109b16116a8565b5b602002602001018190525090565b6109c8611253565b6109d061126d565b8360000151816000600381106109e9576109e86116a8565b5b602002018181525050836020015181600160038110610a0b57610a0a6116a8565b5b6020020181815250508281600260038110610a2957610a286116a8565b5b602002018181525050600060608360808460076107d05a03fa90508060008114610a5257610a54565bfe5b5080610a95576040517f08c379a0000000000000000000000000000000000000000000000000000000008152600401610a8c906118da565b60405180910390fd5b505092915050565b610aa5611253565b610aad61128f565b836000015181600060048110610ac657610ac56116a8565b5b602002018181525050836020015181600160048110610ae857610ae76116a8565b5b602002018181525050826000015181600260048110610b0a57610b096116a8565b5b602002018181525050826020015181600360048110610b2c57610b2b6116a8565b5b602002018181525050600060608360c08460066107d05a03fa90508060008114610b5557610b57565bfe5b5080610b98576040517f08c379a0000000000000000000000000000000000000000000000000000000008152600401610b8f90611946565b60405180910390fd5b505092915050565b610ba8611253565b60007f30644e72e131a029b85045b68181585d97816a916871ca8d3c208c16d87cfd47905060008360000151148015610be5575060008360200151145b15610c09576040518060400160405280600081526020016000815250915050610c40565b604051806040016040528084600001518152602001828560200151610c2e9190611995565b83610c3991906119c6565b8152509150505b919050565b600080600467ffffffffffffffff811115610c6357610c62611340565b5b604051908082528060200260200182016040528015610c9c57816020015b610c89611253565b815260200190600190039081610c815790505b5090506000600467ffffffffffffffff811115610cbc57610cbb611340565b5b604051908082528060200260200182016040528015610cf557816020015b610ce26112b1565b815260200190600190039081610cda5790505b5090508a82600081518110610d0d57610d0c6116a8565b5b60200260200101819052508882600181518110610d2d57610d2c6116a8565b5b60200260200101819052508682600281518110610d4d57610d4c6116a8565b5b60200260200101819052508482600381518110610d6d57610d6c6116a8565b5b60200260200101819052508981600081518110610d8d57610d8c6116a8565b5b60200260200101819052508781600181518110610dad57610dac6116a8565b5b60200260200101819052508581600281518110610dcd57610dcc6116a8565b5b60200260200101819052508381600381518110610ded57610dec6116a8565b5b6020026020010181905250610e028282610e12565b9250505098975050505050505050565b60008151835114610e58576040517f08c379a0000000000000000000000000000000000000000000000000000000008152600401610e4f90611a46565b60405180910390fd5b6000835190506000600682610e6d9190611a66565b905060008167ffffffffffffffff811115610e8b57610e8a611340565b5b604051908082528060200260200182016040528015610eb95781602001602082028036833780820191505090505b50905060005b8381101561113e57868181518110610eda57610ed96116a8565b5b602002602001015160000151826000600684610ef69190611a66565b610f00919061174f565b81518110610f1157610f106116a8565b5b602002602001018181525050868181518110610f3057610f2f6116a8565b5b602002602001015160200151826001600684610f4c9190611a66565b610f56919061174f565b81518110610f6757610f666116a8565b5b602002602001018181525050858181518110610f8657610f856116a8565b5b602002602001015160000151600060028110610fa557610fa46116a8565b5b6020020151826002600684610fba9190611a66565b610fc4919061174f565b81518110610fd557610fd46116a8565b5b602002602001018181525050858181518110610ff457610ff36116a8565b5b602002602001015160000151600160028110611013576110126116a8565b5b60200201518260036006846110289190611a66565b611032919061174f565b81518110611043576110426116a8565b5b602002602001018181525050858181518110611062576110616116a8565b5b602002602001015160200151600060028110611081576110806116a8565b5b60200201518260046006846110969190611a66565b6110a0919061174f565b815181106110b1576110b06116a8565b5b6020026020010181815250508581815181106110d0576110cf6116a8565b5b6020026020010151602001516001600281106110ef576110ee6116a8565b5b60200201518260056006846111049190611a66565b61110e919061174f565b8151811061111f5761111e6116a8565b5b602002602001018181525050808061113690611706565b915050610ebf565b506111476112d7565b6000602082602086026020860160086107d05a03fa9050806000811461116c5761116e565bfe5b50806111af576040517f08c379a00000000000000000000000000000000000000000000000000000000081526004016111a690611b0c565b60405180910390fd5b6000826000600181106111c5576111c46116a8565b5b602002015114159550505050505092915050565b60405180606001604052806111ec611253565b81526020016111f96112b1565b8152602001611206611253565b81525090565b6040518060a0016040528061121f611253565b815260200161122c6112b1565b81526020016112396112b1565b81526020016112466112b1565b8152602001606081525090565b604051806040016040528060008152602001600081525090565b6040518060600160405280600390602082028036833780820191505090505090565b6040518060800160405280600490602082028036833780820191505090505090565b60405180604001604052806112c46112f9565b81526020016112d16112f9565b81525090565b6040518060200160405280600190602082028036833780820191505090505090565b6040518060400160405280600290602082028036833780820191505090505090565b6000604051905090565b600080fd5b600080fd5b6000601f19601f8301169050919050565b7f4e487b7100000000000000000000000000000000000000000000000000000000600052604160045260246000fd5b6113788261132f565b810181811067ffffffffffffffff8211171561139757611396611340565b5b80604052505050565b60006113aa61131b565b90506113b6828261136f565b919050565b600067ffffffffffffffff8211156113d6576113d5611340565b5b602082029050919050565b600080fd5b6000819050919050565b6113f9816113e6565b811461140457600080fd5b50565b600081359050611416816113f0565b92915050565b600061142f61142a846113bb565b6113a0565b90508060208402830185811115611449576114486113e1565b5b835b81811015611472578061145e8882611407565b84526020840193505060208101905061144b565b5050509392505050565b600082601f8301126114915761149061132a565b5b600261149e84828561141c565b91505092915050565b600067ffffffffffffffff8211156114c2576114c1611340565b5b602082029050919050565b60006114e06114db846114a7565b6113a0565b905080604084028301858111156114fa576114f96113e1565b5b835b81811015611523578061150f888261147c565b8452602084019350506040810190506114fc565b5050509392505050565b600082601f8301126115425761154161132a565b5b600261154f8482856114cd565b91505092915050565b600067ffffffffffffffff82111561157357611572611340565b5b602082029050919050565b600061159161158c84611558565b6113a0565b905080602084028301858111156115ab576115aa6113e1565b5b835b818110156115d457806115c08882611407565b8452602084019350506020810190506115ad565b5050509392505050565b600082601f8301126115f3576115f261132a565b5b600361160084828561157e565b91505092915050565b600080600080610160858703121561162457611623611325565b5b60006116328782880161147c565b94505060406116438782880161152d565b93505060c06116548782880161147c565b925050610100611666878288016115de565b91505092959194509250565b60008115159050919050565b61168781611672565b82525050565b60006020820190506116a2600083018461167e565b92915050565b7f4e487b7100000000000000000000000000000000000000000000000000000000600052603260045260246000fd5b7f4e487b7100000000000000000000000000000000000000000000000000000000600052601160045260246000fd5b6000611711826113e6565b91507fffffffffffffffffffffffffffffffffffffffffffffffffffffffffffffffff821415611744576117436116d7565b5b600182019050919050565b600061175a826113e6565b9150611765836113e6565b9250827fffffffffffffffffffffffffffffffffffffffffffffffffffffffffffffffff0382111561179a576117996116d7565b5b828201905092915050565b600082825260208201905092915050565b7f76657269666965722d6261642d696e7075740000000000000000000000000000600082015250565b60006117ec6012836117a5565b91506117f7826117b6565b602082019050919050565b6000602082019050818103600083015261181b816117df565b9050919050565b7f76657269666965722d6774652d736e61726b2d7363616c61722d6669656c6400600082015250565b6000611858601f836117a5565b915061186382611822565b602082019050919050565b600060208201905081810360008301526118878161184b565b9050919050565b7f70616972696e672d6d756c2d6661696c65640000000000000000000000000000600082015250565b60006118c46012836117a5565b91506118cf8261188e565b602082019050919050565b600060208201905081810360008301526118f3816118b7565b9050919050565b7f70616972696e672d6164642d6661696c65640000000000000000000000000000600082015250565b60006119306012836117a5565b915061193b826118fa565b602082019050919050565b6000602082019050818103600083015261195f81611923565b9050919050565b7f4e487b7100000000000000000000000000000000000000000000000000000000600052601260045260246000fd5b60006119a0826113e6565b91506119ab836113e6565b9250826119bb576119ba611966565b5b828206905092915050565b60006119d1826113e6565b91506119dc836113e6565b9250828210156119ef576119ee6116d7565b5b828203905092915050565b7f70616972696e672d6c656e677468732d6661696c656400000000000000000000600082015250565b6000611a306016836117a5565b9150611a3b826119fa565b602082019050919050565b60006020820190508181036000830152611a5f81611a23565b9050919050565b6000611a71826113e6565b9150611a7c836113e6565b9250817fffffffffffffffffffffffffffffffffffffffffffffffffffffffffffffffff0483118215151615611ab557611ab46116d7565b5b828202905092915050565b7f70616972696e672d6f70636f64652d6661696c65640000000000000000000000600082015250565b6000611af66015836117a5565b9150611b0182611ac0565b602082019050919050565b60006020820190508181036000830152611b2581611ae9565b905091905056fea2646970667358221220b17c7e6a571059d138518b14bddddc178c385862bd048c165d2d1bb0bea7dd6664736f6c63430008090033",
  "linkReferences": {},
  "deployedLinkReferences": {}
}